{
  "contractName": "Faucet",
  "abi": [
    {
      "inputs": [],
      "name": "numOfFunders",
      "outputs": [
        {
          "internalType": "uint256",
          "name": "",
          "type": "uint256"
        }
      ],
      "stateMutability": "view",
      "type": "function",
      "constant": true
    },
    {
      "inputs": [],
      "name": "owner",
      "outputs": [
        {
          "internalType": "address",
          "name": "",
          "type": "address"
        }
      ],
      "stateMutability": "view",
      "type": "function",
      "constant": true
    },
    {
      "inputs": [],
      "name": "test5",
      "outputs": [
        {
          "internalType": "uint256",
          "name": "",
          "type": "uint256"
        }
      ],
      "stateMutability": "pure",
      "type": "function",
      "constant": true
    },
    {
      "inputs": [],
      "name": "testNum",
      "outputs": [
        {
          "internalType": "uint256",
          "name": "",
          "type": "uint256"
        }
      ],
      "stateMutability": "view",
      "type": "function",
      "constant": true
    },
    {
      "stateMutability": "payable",
      "type": "receive",
      "payable": true
    },
    {
      "inputs": [],
      "name": "emitLog",
      "outputs": [
        {
          "internalType": "bytes32",
          "name": "",
          "type": "bytes32"
        }
      ],
      "stateMutability": "pure",
      "type": "function",
      "constant": true
    },
    {
      "inputs": [],
      "name": "addFunds",
      "outputs": [],
      "stateMutability": "payable",
      "type": "function",
      "payable": true
    },
    {
      "inputs": [],
      "name": "test1",
      "outputs": [],
      "stateMutability": "nonpayable",
      "type": "function"
    },
    {
      "inputs": [],
      "name": "test2",
      "outputs": [],
      "stateMutability": "nonpayable",
      "type": "function"
    },
    {
      "inputs": [
        {
          "internalType": "uint256",
          "name": "withdrawAmount",
          "type": "uint256"
        }
      ],
      "name": "withdraw",
      "outputs": [],
      "stateMutability": "nonpayable",
      "type": "function"
    },
    {
      "inputs": [],
      "name": "getAllFunders",
      "outputs": [
        {
          "internalType": "address[]",
          "name": "",
          "type": "address[]"
        }
      ],
      "stateMutability": "view",
      "type": "function",
      "constant": true
    },
    {
      "inputs": [
        {
          "internalType": "uint8",
          "name": "index",
          "type": "uint8"
        }
      ],
      "name": "getFunderAtIndex",
      "outputs": [
        {
          "internalType": "address",
          "name": "",
          "type": "address"
        }
      ],
      "stateMutability": "view",
      "type": "function",
      "constant": true
    }
  ],
  "bytecode": "0x608060405234801561001057600080fd5b50600080546001600160a01b031916331790556103e86001556104e1806100386000396000f3fe6080604052600436106100a05760003560e01c80636fbbb55d116100645780636fbbb55d1461015d5780638da5cb5b146101c2578063a26759cb146101d7578063ae28f1ed146101df578063af7f2c9b146101f4578063f42c13bf14610209576100a7565b80630a93cf33146100ac5780631ad7be82146100f55780632e1a7d4d1461011c57806366e41cb7146101485780636b59084d14610148576100a7565b366100a757005b600080fd5b3480156100b857600080fd5b506100d9600480360360208110156100cf57600080fd5b503560ff1661021e565b604080516001600160a01b039092168252519081900360200190f35b34801561010157600080fd5b5061010a61023c565b60408051918252519081900360200190f35b34801561012857600080fd5b506101466004803603602081101561013f57600080fd5b503561024e565b005b34801561015457600080fd5b506101466102c8565b34801561016957600080fd5b50610172610313565b60408051602080825283518183015283519192839290830191858101910280838360005b838110156101ae578181015183820152602001610196565b505050509050019250505060405180910390f35b3480156101ce57600080fd5b506100d96103b8565b6101466103c7565b3480156101eb57600080fd5b5061010a610444565b34801561020057600080fd5b5061010a61044a565b34801561021557600080fd5b5061010a610450565b60ff166000908152600460205260409020546001600160a01b031690565b6000610246610462565b50600a905090565b8067016345785d8a00008111156102965760405162461bcd60e51b81526004018080602001828103825260238152602001806104896023913960400191505060405180910390fd5b604051339083156108fc029084906000818181858888f193505050501580156102c3573d6000803e3d6000fd5b505050565b6000546001600160a01b031633146103115760405162461bcd60e51b81526004018080602001828103825260218152602001806104686021913960400191505060405180910390fd5b565b60608060025467ffffffffffffffff8111801561032f57600080fd5b50604051908082528060200260200182016040528015610359578160200160208202803683370190505b50905060005b6002548110156103b25760008181526004602052604090205482516001600160a01b039091169083908390811061039257fe5b6001600160a01b039092166020928302919091019091015260010161035f565b50905090565b6000546001600160a01b031681565b336103d0610462565b506001600160a01b03811660009081526003602052604090205460ff16610441576002805460018082019092556001600160a01b0383166000818152600360209081526040808320805460ff1916909617909555928152600490925291902080546001600160a01b03191690911790555b50565b60015481565b60025481565b6a12195b1b1bc815dbdc9b1960aa1b90565b60649056fe4f6e6c79206f776e65722063616e2063616c6c20746869732066756e6374696f6e43616e6e6f74207769746864726177206d6f7265207468616e20302e31206574686572a2646970667358221220d24e204e95a36ab2da10275a9cd6f9f02478282846a0db044770ae262a537a1d64736f6c63430007010033",
  "immutableReferences": {},
  "source": "// SPDX-License-Identifier: MIT\npragma solidity >=0.4.22 <0.9.0;\n\nimport \"./Owned.sol\";\nimport \"./Logger.sol\";\nimport \"./IFaucet.sol\";\n\ncontract Faucet is Owned, Logger, IFaucet {\n    uint256 public numOfFunders;\n\n    mapping(address => bool) private funders;\n    mapping(uint256 => address) private lutFunders;\n\n    modifier limitWithdraw(uint256 withdrawAmount) {\n        require(\n            withdrawAmount <= 100000000000000000,\n            \"Cannot withdraw more than 0.1 ether\"\n        );\n        _;\n    }\n\n    receive() external payable {}\n\n    function emitLog() public pure override returns (bytes32) {\n        return \"Hello World\";\n    }\n\n    function addFunds() external payable override {\n        address funder = msg.sender;\n        test3();\n\n        if (!funders[funder]) {\n            uint256 index = numOfFunders++;\n            funders[funder] = true;\n            lutFunders[index] = funder;\n        }\n    }\n\n    function test1() external onlyOwner {\n        // some managing stuff that only admin should have access to\n    }\n\n    function test2() external onlyOwner {\n        // some managing stuff that only admin should have access to\n    }\n\n    function withdraw(uint256 withdrawAmount)\n        external\n        override\n        limitWithdraw(withdrawAmount)\n    {\n        payable(msg.sender).transfer(withdrawAmount);\n    }\n\n    function getAllFunders() external view returns (address[] memory) {\n        address[] memory _funders = new address[](numOfFunders);\n\n        for (uint256 i = 0; i < numOfFunders; i++) {\n            _funders[i] = lutFunders[i];\n        }\n\n        return _funders;\n    }\n\n    function getFunderAtIndex(uint8 index) external view returns (address) {\n        return lutFunders[index];\n    }\n}\n\n// const instance = await Faucet.deployed();\n\n// instance.addFunds({from: accounts[0], value: \"2000000000000000000\"})\n// instance.addFunds({from: accounts[1], value: \"2000000000000000000\"})\n\n// instance.withdraw(\"10000000000000000\", {from: accounts[1]})\n\n// instance.getFunderAtIndex(0)\n// instance.getAllFunders()\n",
  "sourcePath": "/home/hammed/eth-faucet/contracts/Faucet.sol",
  "compiler": {
    "name": "solc",
    "version": "0.7.1+commit.f4a555be.Emscripten.clang"
  },
  "schemaVersion": "3.4.4",
  "updatedAt": "2022-09-21T07:48:51.704Z",
  "networkType": "ethereum",
  "devdoc": {
    "kind": "dev",
    "methods": {},
    "version": 1
  },
  "userdoc": {
    "kind": "user",
    "methods": {},
    "version": 1
  }
}